:200000000C94DA020C9402030C9402030C94FE0B0C94FE0B0C94FE0B0C9402030C940203D5
:200020000C9402030C9402030C9402030C9402030C9402030C9402030C9402030C94020398
:200040000C945C0B0C9402030C94CC0B0C94A60B0C9402030C9402030C9402030C94020398
:200060000C94760C0C94020320646964206E6F7420776F726B0053657474696E6720707234
:200080006F746F636F6C20766961200020646964206E6F7420776F726B202D207472796976
:2000A0006E6720766961200053657474696E672070726F746F636F6C207669612000526544
:2000C00073706F6E7365206E6F742064657465637465640009726573706F6E73654279740E
:2000E000655F373A200009726573706F6E7365427974655F363A200009726573706F6E739D
:2001000065427974655F353A200009726573706F6E7365427974655F343A200009726573AC
:20012000706F6E7365427974655F333A200009726573706F6E7365427974655F323A200023
:2001400009726573706F6E7365427974655F313A200009726573706F6E7365427974655F3E
:20016000303A200036342D62697420726573706F6E73653A200053696E676C65207265736A
:20018000706F6E736520646574656374656400446F75626C6520726573706F6E736520646A
:2001A0006574656374656400457870656374656420726573706F6E73652068656164657217
:2001C0003A20004C616767696E67207A65726F73206E6F7420666F756E64202D2061737358
:2001E000756D696E67206C656164696E67207A65726F73004C616767696E67207A65726FFF
:200200007320666F756E64004C6F6F6B696E6720666F72206C616767696E67207A65726F1C
:2002200073005741524E494E473A204E756D626572206F66207061796C6F61642063686127
:2002400072732072657475726E656420627920454C4D33323720697320616E206F64642039
:2002600076616C7565202D2072657475726E696E672030005741524E494E473A204E756D26
:20028000626572206F66207061796C6F6164206368617273206973206C65737320746861C5
:2002A0006E20746865206E756D626572206F6620657870656374656420726573706F6E7335
:2002C000652063686172732072657475726E656420627920454C4D333237202D20726574B2
:2002E00075726E696E67203000517565727920737472696E673A20004E6F726D616C206CFF
:20030000656E677468207175657279206465746563746564005049443A20005365727669CF
:2003200063653A20004E6F206572726F72206465746563746564004552524F523A20454CBD
:200340004D5F47454E4552414C5F4552524F52004552524F523A20454C4D5F54494D454F6B
:200360005554004552524F523A20454C4D5F53544F50504544004552524F523A20454C4DD2
:200380005F4E4F5F44415441004552524F523A20454C4D5F554E41424C455F544F5F434F1D
:2003A0004E4E454354004552524F523A20454C4D5F4255464645525F4F564552464C4F5717
:2003C000004552524F523A20454C4D5F4E4F5F524553504F4E534500454C4D5F5355434326
:2003E0004553530052656365697665643A200000000000240027002A000000000800020111
:2004000000000304070000000000000000436C656172696E6720696E707574207365726986
:20042000616C206275666665720053656E64696E672074686520666F6C6C6F77696E67201B
:20044000636F6D6D616E642F71756572793A2000454C4D20726573706F6E6465642077693C
:20046000746820224552524F522200454C4D20726573706F6E64656420776974682065721D
:20048000726F72202253544F505045442200454C4D20726573706F6E6465642077697468E8
:2004A000206572726F7220224E4F20444154412200454C4D20726573706F6E64656420775E
:2004C000697468206572726F722022554E41424C4520544F20434F4E4E4543542200206203
:2004E0007974657329004F4244207265636569766520627566666572206F766572666C6F7F
:200500007720283E20006D730054696D656F75742064657465637465642077697468206F2A
:20052000766572666C6F77206F662000416C6C2063686172732072656365697665643A2096
:200540000044656C696D6974657220666F756E642E005F005C76005C74005C72005C6E00F9
:200560005C660009526563656976656420636861723A2000000000002300260029000000FF
:200580000000250028002B0004040404040404040202020202020303030303030102040896
:2005A00010204080010204081020010204081020910DF21511241FBECFEFD8E0DEBFCDBF77
:2005C00024E0AEE2B2E001C01D92A539B207E1F712E0A0E0B1E0E8E6FAE302C005900D9272
:2005E000AE32B107D9F712E0C9EDD2E004C02197FE010E944F18C83DD107C9F70E949A0ECE
:200600000C94271D0C940000282FFC0181918B354CF0DF01119780528C938E2F821B861784
:20062000A8F3089596EC980F9730B8F7DF011197895FF2CF90E0FC01E750FC4F2491FC0111
:20064000E456FA4F3491FC01E857FA4FE491EE23C9F0222339F0233001F1A8F4213019F1E4
:20066000223029F1F0E0EE0FFF1FE258FA4FA591B4918FB7F894EC91611126C030953E2358
:200680003C938FBF08952730A9F02830C9F0243049F7809180008F7D03C0809180008F7714
:2006A00080938000DFCF84B58F7784BDDBCF84B58F7DFBCF8091B0008F778093B000D2CF95
:2006C0008091B0008F7DF9CF3E2BDACFCF93DF9390E0FC01E456FA4F249188579A4FFC0135
:2006E00084918823D1F090E0880F991FFC01E151FC4FA591B491FC01E258FA4FC591D4918A
:2007000061110EC09FB7F8948C91E22FE0958E238C932881E223E8839FBFDF91CF91089560
:200720008FB7F894EC91E22BEC938FBFF6CF3FB7F89480910E0390910F03A0911003B0916F
:20074000110326B5A89B05C02F3F19F00196A11DB11D3FBFBA2FA92F982F8827BC01CD0148
:20076000620F711D811D911D42E0660F771F881F991F4A95D1F708958F929F92AF92BF927A
:20078000CF92DF92EF92FF924B015C010E9497036B017C010E9497036C197D098E099F0921
:2007A000683E734081059105A8F321E0821A9108A108B10888EEC80E83E0D81EE11CF11CE2
:2007C00081149104A104B10429F7FF90EF90DF90CF90BF90AF909F908F900895AF92BF928E
:2007E000CF92DF92EF92FF920F931F93CF93DF936C017B018B01040F151FEB015E01AE1820
:20080000BF08C017D10759F06991D601ED91FC910190F081E02DC6010995892B79F7C501DF
:20082000DF91CF911F910F91FF90EF90DF90CF90BF90AF900895FC01538D448D252F30E07F
:20084000842F90E0821B930B541710F0CF96089501970895FC01918D828D981761F0A28D3F
:20086000AE0FBF2FB11D5D968C91928D9F5F9F73928F90E008958FEF9FEF0895FC01918DCE
:20088000828D981731F0828DE80FF11D858D90E008958FEF9FEF0895FC01918D228D892F1B
:2008A00090E0805C9F4F821B91098F739927089586E193E00E944C0421E0892B09F420E0EA
:2008C000822F089580E090E0892B29F00E94580481110C9400000895FC01A48DA80FB92F93
:2008E000B11DA35ABF4F2C91848D90E001968F739927848FA689B7892C93A089B1898C91C7
:20090000837080648C93938D848D981306C00288F389E02D80818F7D80830895EF92FF926D
:200920000F931F93CF93DF93EC0181E0888F9B8D8C8D98131AC0E889F989808185FF15C017
:200940009FB7F894EE89FF896083E889F98980818370806480839FBF81E090E0DF91CF9106
:200960001F910F91FF90EF900895F62E0B8D10E00F5F1F4F0F731127E02E8C8D8E110CC0A8
:200980000FB607FCFACFE889F989808185FFF5CFCE010E946C04F1CFEB8DEC0FFD2FF11D3C
:2009A000E35AFF4FF0829FB7F8940B8FEA89FB8980818062CFCF0F931F93CF93DF938C0191
:2009C000D0E0C0E0F801EC0FFD1F6491662341F086E193E00E948E04892B11F02196F2CFCD
:2009E000CE01DF91CF911F910F910895CF93DF93EC01888D8823B9F0AA89BB89E889F989D7
:200A00008C9185FD03C0808186FD0DC00FB607FCF7CF8C9185FFF2CF808185FFEDCFCE0123
:200A20000E946C04E9CFDF91CF91089520910503309106032817390771F4909103038091E0
:200A40000403981741F0E0910303F0E0ED53FD4F808190E008958FEF9FEF08950895EF9207
:200A6000FF920F931F93CF93DF93DC015C96ED90FC905D97E114F10479F481E090E0139620
:200A80009C938E93129790E080E0DF91CF911F910F91FF90EF9008955196ED91FC915297E7
:200AA00050968C915097982F90950FB75E962C915E97122F127021FD6095F89420811123BD
:200AC00019F1282B2083E7012197F1F728E0462F50E0308160FF1AC0382B3083E701219741
:200AE000F1F7BA0175956795215089F7112381F08081892380830FBF5C968D919C91019764
:200B0000F1F781E090E0C1CF2923DCCF3923E5CF9081892BEFCF2091050330910603281740
:200B2000390761F4809104032091030390E0805C9F4F821B91098F739927089590E080E0B1
:200B40000895209105033091060328173907B9F49091030380910403981789F0E09103036B
:200B6000F0E0ED53FD4F80812091030330E02F5F3F4F2F7333272093030390E008958FEFF5
:200B80009FEF08952FB7F8948091120390911303A0911403B09115032FBF8093C7039093CC
:200BA000C803A093C903B093CA038FEB93E00E94A10597FF26C02FB7F894809112039091F1
:200BC0001303A0911403B09115032FBF4091C7035091C8036091C9037091CA03841B950B5F
:200BE000A60BB70B4091C3035091C4036091C5037091C60384179507A607B707B0F28FEFFE
:200C00009FEF089508951F93CF93DF93C1E0C0932F02882399F1D091B8001091BA008091A7
:200C2000BC008A7B8093BC0060E082E10E941A0360E083E10E941A0310929902C093980235
:200C40001092730261E082E10E941A0361E083E10E941A038091B9008E7F8093B900809102
:200C6000B9008D7F8093B90088E48093B80085E48093BC001093BA00D093B800DF91CF912C
:200C80001F91089520915002260F3327331F21323105ECF420919902FC0190E080E024304D
:200CA00069F082E00895A09150022191AC01405D5D4FA40FB52FB11D2C930196861798F3CE
:200CC00080915002680F6093500280E0089581E008958FEF9FEF08958FEF9FEF0895809197
:200CE0002E0290E09195819591090895CF92DF92EF92FF920F931F93CF93DF937C01CB018C
:200D00008A0120919F02222389F0EB016B01C40ED51ECC15DD0569F06991D701ED91FC9122
:200D20000190F081E02DC7010995F3CF642F0E944206C801DF91CF911F910F91FF90EF9008
:200D4000DF90CF900895CF93DF931F92CDB7DEB7698320919F022223F9F02091C202203257
:200D600058F021E030E0FC013383228390E080E00F90DF91CF9108958091A002E82FF0E04C
:200D8000EF55FD4F998190838F5F8093A0028093C20281E090E0ECCF61E0CE0101960E9447
:200DA0004206F7CFCF92DF92EF92FF920F931F93CF93DF93FC01C48121E020939F02C0932F
:200DC000C1021092A0021092C2028385682B83EB93E00E94A306D091C202D13208F092C06D
:200DE0000E9497036B017C0180919902811165C082E08093990281E0809398028FEF8093BC
:200E0000970210929602D0939502A1EAB2E0E5E7F2E080E0D81385C010927402809174021B
:200E2000CC0FC82BC093740280917302813009F07CC0109273020E9497036B017C01809162
:200E400074028093BB0080919B0290919C02A0919D02B0919E02892B8A2B8B2B99F00E94E6
:200E6000970300919B0210919C0220919D0230919E026C197D098E099F0906171707280706
:200E80003907E0F18091BC0083FDD9CF85EC8093BC000E9497036B017C0180919902823089
:200EA00009F445C0809197028F3F61F180919702803241F18091970225C080919B0290917A
:200EC0009C02A0919D02B0919E02892B8A2B8B2B09F48ACF0E94970300919B0210919C02A5
:200EE00020919D0230919E026C197D098E099F09061717072807390708F076CF80919A0263
:200F00000E9403061092A0021092C20210929F02DF91CF911F910F91FF90EF90DF90CF903D
:200F200008959D9191938F5F75CF85EEB0CF80919B0290919C02A0919D02B0919E02892BCC
:200F40008A2B8B2B09F4A9CF0E94970300919B0210919C0220919D0230919E026C197D094C
:200F60008E099F09061717072807390708F095CFC5CF90E080E008950F931F93CF938C01E8
:200F8000C62F0E94D2066C2F6460C8010E94D2066C2F6B7FC8010E94D20683EC90E0019701
:200FA000F1F7CF911F910F9108950F931F93CF93DF938C01D62FC42F607F642B0E94BC077C
:200FC00080E1D89FB00111246C2BC801DF91CF911F910F910C94BC07682F606840E08EED76
:200FE00093E00C94D50740E061E08EED93E00E94D5078BE39FE10197F1F7089541E00E9467
:20100000D50781E090E00895FF920F931F93CF93DF93D82F8B01F42EC0E0B8010E946C1A97
:201020004C2F50E021E0F2120AC030E020E04217530741F0009779F00196CF5FEECF21E0BF
:2010400030E0F5CF009739F08D1BDF91CF911F910F91FF9008958FEFF8CFFB010190002016
:20106000E9F73197AF01461B570BDC01ED91FC910280F381E02D0994CF93DF930E94DB0478
:20108000EC0168E771E086E193E00E942D088C0F9D1FDF91CF9108958F929F92AF92BF926A
:2010A000EF92FF920F931F93CF93DF93CDB7DEB7A1970FB6F894DEBF0FBECDBF7C01FA01E6
:2010C000CB0119A2223008F42AE08E010F5D1F4F822E912CB12CA12CBF01A50194010E9414
:2010E000DA16F901CA016A300CF5605DD8016E938D01232B242B252B79F790E080E01097A7
:2011000021F0BD01C7010E942D08A1960FB6F894DEBF0FBECDBFDF91CF911F910F91FF9034
:20112000EF90BF90AF909F908F900895695CDECFCF93DF93482F50E070E060E02AE086E1C9
:2011400093E00E944C08EC0168E771E086E193E00E942D088C0F9D1FDF91CF910895CF93C2
:20116000DF93D0E0C0E0009731F0BC0186E193E00E942D08EC0168E771E086E193E00E947E
:201180002D088C0F9D1FDF91CF910895CF93DF938091FC039091FD03DC01ED91FC910084E5
:2011A000F185E02D0995892B09F07CC088E0809305042FB7F8948091120390911303A091A1
:2011C0001403B09115032FBF8093870490938804A0938904B0938A0440918B0450918C0402
:2011E00060918D0470918E04841B950BA60BB70B409111045091120470E060E08417950784
:20120000A607B70718F087E08093050480910504883009F444C090910004992361F089301A
:2012200051F48CE295E00E94DB0480910104909102040E94AF0880910504873009F0A4C041
:2012400080910004882349F189E095E00E94DB0440918704509188046091890470918A045F
:2012600080918B0490918C04A0918D04B0918E04481B590B6A0B7B0B809111049091120469
:20128000481B590B610971092AE086E193E00E944C0886E095E00E943C0880910504DF917E
:2012A000CF9108958091FC039091FD03DC01ED91FC910284F385E02D0995C82F8091000463
:2012C000882309F4CFC083E695E00E94DB0480E695E0CC3021F0CA3091F48DE595E00E9488
:2012E0003C088C2F0C2E000C990B0E94371A892B69F5CA3359F1CE3249F188E085CF8AE554
:2013000095E0CD3061F387E595E0C93041F384E595E0CB3021F382E595E0C03201F36C2FAF
:2013200086E193E00E948E0468E771E086E193E00E942D08CE33A9F680910004882321F0DD
:2013400081E495E00E943C0889E05ECF80910E0490910F042091030430910404821793072C
:2013600088F4E0910104F0910204E80FF91FC08380910E0490910F04019690930F0480936B
:201380000E04BBCF82E040CF8230B9F480910004882309F482CF86EE94E00E94DB04409199
:2013A00003045091040470E060E02AE086E193E00E944C088EED94E06ECFC0910104D091F0
:2013C000020441E068E471E0CE010E94040887FD0CC080910004882321F081EB94E00E9429
:2013E0003C0884E0809305045ACF81E08093FE0341E068E571E0CE010E94040887FD0AC001
:2014000080910004882321F08EE894E00E943C0885E0E8CF41E06FE571E0CE010E940408CC
:2014200087FD0AC080910004882321F08BE694E00E943C0886E0D6CF41E067E671E0CE0129
:201440000E94040887FD0AC080910004882321F080E594E00E943C088FEFC4CF1092050444
:2014600080E01DCFCE3309F03CCF6ECFCF93DF93EC0140910304509104044F5F5F4F70E0B0
:2014800060E080910104909102040E94551A10920F0410920E0480910004882321F08DE017
:2014A00094E00E943C088091FC039091FD03DC01ED91FC910084F185E02D0995892B61F00F
:2014C0008091FC039091FD03DC01ED91FC910284F385E02D0995E7CF1092FE0388E0809376
:2014E000050480910004882339F08AE294E00E94DB04CE010E94AF08209739F0BE018091C1
:20150000FC039091FD030E942D088091FC039091FD03DC01ED91FC910190F081E02D6DE05F
:2015200009952FB7F8948091120390911303A0911403B09115032FBF80938B0490938C045A
:20154000A0938D04B0938E048093870490938804A0938904B0938A04DF91CF9108950E9405
:20156000360A0E94C6088830E1F3809105040895FC0180819181009711F00C94F11808958A
:201580000F931F93CF93DF93EC0188819981009759F02A813B812617370730F081E0DF9160
:2015A000CF911F910F9108958B016F5F7F4F0E947A19009759F0998388831B830A832C81A2
:2015C0003D81232B59F7FC011082E8CF80E0E7CFEF92FF920F931F93CF93DF93EC017B01B0
:2015E0008A01BA010E94C00A28813981811114C02115310519F0C9010E94F1181982188251
:201600001D821C821B821A82CE01DF91CF911F910F91FF90EF9008951D830C83B701C90109
:201620000E94651AF1CFFC01118210821382128215821482FB0101900020E9F73197AF014C
:20164000461B570B0C94E80A85ED8093BC0080919B0290919C02A0919D02B0919E02079639
:20166000A11DB11D23E0B695A795979587952A95D1F72091BC0024FD03C01092990208955A
:2016800040919B0250919C0260919D0270919E02452B462B472B69F30097A105B10541F059
:2016A0002AE22A95F1F700C00197A109B109E1CF80919A020C9403061F920F920FB60F92FD
:2016C00011242F933F938F939F93AF93BF938091120390911303A0911403B091150330919A
:2016E0000D0323E0230F2D3758F50196A11DB11D20930D038093120390931303A093140363
:20170000B093150380910E0390910F03A0911003B09111030196A11DB11D80930E03909316
:201720000F03A0931003B0931103BF91AF919F918F913F912F910F900FBE0F901F90189523
:2017400026E8230F0296A11DB11DD2CF1F920F920FB60F9211242F933F934F935F936F932D
:201760007F938F939F93AF93BF93EF93FF9386E193E00E946C04FF91EF91BF91AF919F919F
:201780008F917F916F915F914F913F912F910F900FBE0F901F9018951F920F920FB60F929A
:2017A00011242F938F939F93EF93FF93E0912603F09127038081E0912C03F0912D0382FDB4
:2017C0001BC0908180912F038F5F8F7320913003821741F0E0912F03F0E0EA5EFC4F958F12
:2017E00080932F03FF91EF919F918F912F910F900FBE0F901F9018958081F4CF1F920F9207
:201800000FB60F9211242F933F934F935F936F937F938F939F93AF93BF93EF93FF93E09144
:201820000503F0910603309749F0A685B7858585968D91FF14C09C918923A1F4FF91EF91A0
:20184000BF91AF919F918F917F916F915F914F913F912F910F900FBE0F901F9018959C91A4
:20186000892361F7A389B4899C918589809589238C93868997890197F1F7608D718DA6851B
:20188000B785558538E020E0CB010197F1F7822F90E095958795282F4C91452309F020684A
:2018A000315091F7868D81FD20958091040390E001968F73992730910303381799F0A09128
:2018C0000403B0E0AD53BD4F2C9380930403828D938D0197F1F7A389B4898C919589892B85
:2018E0008C93ACCF868D8160868FF1CF1F920F920FB60F9211242F933F934F935F936F932E
:201900007F938F939F93AF93BF93EF93FF938091B900887F803609F44AC0F0F5883209F48F
:20192000A5C018F5803109F499C0B8F4882309F4F5C0883009F492C0FF91EF91BF91AF917E
:201940009F918F917F916F915F914F913F912F910F900FBE0F901F901895883109F486C064
:20196000803251F78093970214C0803409F49BC040F48033B9F38833F9F68093970285EC87
:20198000AEC0803509F483C0883509F494C0883499F60E94240BD0CF883909F48AC038F5E6
:2019A000883729F050F4883611F0803729F683E0809399021092720255C0883809F479C044
:2019C000803919F0803809F0B7CF80917202803208F06FC0E091720281E08E0F8093720246
:2019E0008091BB00F0E0EE5AFD4F80833BC0803B39F0D0F4803A09F477C0883A09F09CCFFD
:201A000084E0809399021092510210925002F0E0E0E009958091500281110FC081E0809365
:201A200050021092300209C0803C09F4A8CF883C09F4A5CF883B09F07FCFE091510281E023
:201A40008E0F80935102F0E0E05DFD4F80818093BB00909151028091500229C08091740214
:201A60008093BB0085EC8093BC0066CF9091960280919502981758F5E091960281E08E0FBF
:201A800080939602F0E0EB58FD4F8081E9CFE091960281E08E0F809396028091BB00F0E035
:201AA000EB58FD4F808390919602809195029817C8F285E8D8CFE091960281E08E0F80939C
:201AC00096028091BB00F0E0EB58FD4F80838091980281115ECF81E08093730284EA80936C
:201AE000BC001092990228CF85EC8093BC001092990280917202803230F4E0917202F0E069
:201B0000EE5AFD4F10826091720270E082E592E0F0E0E0E00995109272020ECF10929702B5
:201B200038CFCF92DF92EF92FF92CF93109219031092180398EEC92E93E0D92EE12CF12CBC
:201B4000C0921A03D0921B03E0921C03F0921D038AE091E0909317038093160385EC90E03E
:201B6000909323038093220384EC90E0909325038093240380EC90E090932703809326031A
:201B800081EC90E0909329038093280382EC90E090932B0380932A0386EC90E090932D0337
:201BA00080932C0310922F031092300310923103109232031092B6031092B503C092B703CC
:201BC000D092B803E092B903F092BA038CE191E09093B4038093B3031092FE03C1E0C09363
:201BE000FF0388E08093050410921B04ECE7F4E089E0DF011D928A95E9F710928504109233
:201C000086041092900410928F046AE771E086EF93E00E94130B6AE771E080EF93E00E945F
:201C2000130B6AE771E08AEE93E00E94130B1092E1031092E00380E491E09093DF03809341
:201C4000DE0387E28093E20380E18093E70382E08093E8031092E9031092C2031092C10329
:201C6000C092C303D092C403E092C503F092C6038EE291E09093C0038093BF031092D60387
:201C80001092D5031092D8031092D7031092DA031092D9031092DC031092DB038091DD03E2
:201CA0008E7F8D7F8093DD0381FB662760F96C278AE00E941A0361E08AE00E946603E6EA74
:201CC000F5E0E491E093CF03E2E9F5E0E491F0E0EE0FFF1FE258FA4F859194919093D103C0
:201CE0008093D00360E08BE00E9466038091DD0381FD04C061E08BE00E941A038BE080932C
:201D0000CB03E7EAF5E0E491E093CC03E3E9F5E0E491F0E0EE0FFF1FEC58FA4F85919491CF
:201D20009093CE038093CD03CF91FF90EF90DF90CF900895CF93DF93CDB7DEB76B970FB63F
:201D4000F894DEBF0FBECDBF789484B5826084BD84B5816084BD85B5826085BD85B58160C5
:201D600085BD80916E00816080936E001092810080918100826080938100809181008160A2
:201D800080938100809180008160809380008091B10084608093B1008091B000816080938B
:201DA000B00080917A00846080937A0080917A00826080937A0080917A00816080937A0084
:201DC00080917A00806880937A001092C10061E088E00E94660361E089E00E94660361E0F6
:201DE0008DE00E94660361E08CE00E94660361E087E00E94660361E088E00E941A0360E058
:201E00008DE00E941A0360E08CE00E941A0360E087E00E941A03E0912603F091270382E01E
:201E20008083E0912203F09123031082E0912403F09125038FEC808310922E03E0912A03A0
:201E4000F0912B0386E08083E0912803F0912903808180618083E0912803F09129038081F2
:201E600088608083E0912803F0912903808180688083E0912803F091290380818F7D8083E9
:201E80001092DA031092D9031092D8031092D7031092D6031092D5038DE991E09093DC036E
:201EA0008093DB039091CB03963108F047C02DEB30E03093D6032093D5032BE931E0309345
:201EC000D8032093D7032CE231E03093DA032093D9032091680084E0983048F031E09E30F0
:201EE00008F430E081E001C0880F3A95EAF7822B809368002DE630E0983050F02BE630E0F9
:201F00009E3030F02CE630E0963110F030E020E03093D3032093D203292F30E0983008F091
:201F200045C181E001C0880F9A95EAF78093D4038091DB039091DC030197F1F78091D9038C
:201F40009091DA03892B49F1E0910503F091060323E0EF3BF20709F1309739F0A389B48919
:201F60009C918589809589238C938091DD038E7F8093DD0310920403109203038FEB93E017
:201F80009093060380930503E091D203F091D30380819091D403892B80838091E3038860CE
:201FA0008093E30342E0F42EF092E60362E370E080E090E00E94BC036091E9038EED93E0E8
:201FC0000E94D20668EE73E080E090E00E94BC0360E38EED93E00E94BC070BE416E4C80165
:201FE0000197F1F760E38EED93E00E94BC07C8010197F1F760E38EED93E00E94BC0783E584
:2020000092E00197F1F760E28EED93E00E94BC076091E303606240E08EED93E00E94D50714
:2020200084E08093E40340E06CE08EED93E00E94D5070E94F307F092E50340E066E08EED83
:2020400093E00E94D50740E062E08EED93E00E94D5078BE39FE10197F1F788E08093E903EC
:2020600060E08EED93E00E94D2060E94F30780E00E94EC070E94F30785E00E94EC076DE63E
:2020800071E08EED93E00E942D088E010F5F1F4F5AEB252E51E0352E6E0187E1C80ED11CF9
:2020A00061EE462E61E0562E75ECA72E71E0B72EE0E38E2EE5E79E2E8091070390910803CE
:2020C000892B09F480C0DE0111966D0144244394512C21E3922E3CE3832E80918F04909106
:2020E0009004009709F0ABC2809100048823D1F08BE193E00E94DB0481E00E94980885E165
:2021000093E00E94DB042AE04CE050E060E070E086E193E00E944C0868E771E086E193E08B
:202120000E942D081092860480E380937C0490927D0480910004882321F088EF92E00E94A7
:202140003C081092850480E380937E0480927F048091FF03882309F466C290928004109258
:20216000810410928204109283041092840465E08CE794E00E94040380910004882341F099
:2021800089EE92E00E94DB048CE794E00E94AF088CE794E00E94360AE1E0F0E0F093900424
:2021A000E0938F0460E070E0CB016BC49E3040F42850310981E001C0880F2A95EAF7B6CEFD
:2021C0002E503109F7CF65E771E08FEB93E00E942D0861E087E00E941A0364E670E080E0BF
:2021E00090E00E94BC0360E087E00E941A0360E273E080E090E00E94BC038FEB93E00E9453
:202200008B05892B09F458CF1A8A198A1C8A1B8A1E8A1D8A50E040E06AE771E0CE014196DD
:202220000E94E80A0E94C2054D895E8997FD19C089831A827A01BFEFEB1AFB0AB701CE0115
:2022400041960E94C00A882369F329893A898D899E89B801820F931F0E94651AFE8AED8A66
:20226000E1CF69897A8986E193E00E94EE0368E771E086E193E00E942D0867EF71E0C8018B
:202280000E94130B8D899E89892B61F069887A8869817A81C3010E946C1A7C01E618F708FE
:2022A000892B19F4EE24EA94FE2CC8010E94B80AEF20E09409F421C181E090E09093080315
:2022C000809307038BE791E00E94AF088FEB93E09093FD038093FC03A8E2B0E0B09304041E
:2022E000A093030481E080930004E0EDF7E0F0931204E093110489E290E00E94551890935A
:202300000204809301048AE0D8011D928A95E9F71092FE038EE991E00E94AF0A64E670E02E
:2023200080E090E00E94BC0383EA91E00E94AF0A64E670E080E090E00E94BC0388EA91E085
:202340000E94AF0A64E670E080E090E00E94BC038EEA91E00E94AF0A64E670E080E090E0A9
:202360000E94BC0384EB91E00E94AF0A64E670E080E090E00E94BC031F921F923F922F9202
:202380001F930F930E94861AC8010E94AF0A64E670E080E090E00E94BC031C861B861E86D1
:2023A0001D86188A1F8680E38F8B188EF60101900020E9F73197AF014C195D09B601CE01BF
:2023C0000B960E94E80A0F900F900F900F900F900F908F859889892B51F065ED71E08B8531
:2023E0009C850E945C1AFF24F394892B09F0F12CCE010B960E94B80AFF2009F4F2C01F92DD
:2024000080E38F93BF92AF921F930F930E94861AC8010E94AF0A0F900F900F900F900F90D0
:202420000F9081118EC06FEC71E080910104909102040E946C1A892B09F483C0E090110493
:20244000F0901204909212048092110482ED91E00E94AF0A811156C0F0921204E092110485
:2024600081E08093FE038AEE91E00E94AF086EEF71E086E193E00E942D0861E08CE00E94F7
:202480001A0361E087E00E941A0362E370E080E090E00E94BC0360E087E00E941A0362E347
:2024A00070E080E090E00E94BC0361E087E00E941A0362E370E080E090E00E94BC0360E02E
:2024C00087E00E941A0362E370E080E090E00E94BC0361E087E00E941A0362E370E080E0B4
:2024E00090E00E94BC0360E087E00E941A0362E370E080E090E00E94BC03CE0141960E9497
:20250000B80ADACD8230C9F48091FC039091FD03DC01ED91FC910084F185E02D0995892B71
:2025200061F08091FC039091FD03DC01ED91FC910284F385E02D0995E7CFF0921204E092C8
:20254000110480910004882391F088EA90E00E94DB0467ED71E086E193E00E942D088CE8F8
:2025600090E00E94DB0481EE91E00E94AF081F9280E38F935F924F921F930F930E94861A93
:20258000C8010E94AF0A0F900F900F900F900F900F9081110BC06FEC71E08091010490911D
:2025A00002040E946C1A892B09F05ACF80910004882371F086E790E00E94DB0461EE71E0F8
:2025C00086E193E00E942D0888E690E00E943C088091FE03811147CF83E092E00E94AF089E
:2025E000FFCF1F9280E38F9387ED91E09F938F931F930F930E94861AC8010E94AF0A0F9045
:202600000F900F900F900F900F9081119ACF6FEC71E080910104909102040E946C1A892BDF
:2026200009F01ECF8ECF109280041092810410928204109283041092840464E099CD01974D
:2026400009F0B0CD0E94C60880910504811182C21092900410928F0487E0D6011D928A952D
:20266000E9F780917C048C5F30917D0420917E0490917F044091850489833A83442309F45E
:20268000A0C02B839C83809180048D83809181048E8380910004882339F088EA91E00E9453
:2026A000DB04C6010E94AF08009101041091020441E0B601C8010E940408A82E42E0B601E0
:2026C000C8010E940408182F80910004A7FC44C190918504911105C090918604992309F40A
:2026E0007DC0B6E0AB0E17FD7CC0882321F08FE891E00E943C081A191093100410920604DE
:2027000010920704109208041092090410920A0410920B0410920C0410920D0460901004E5
:202720002090010430900204712CFFE3F60DF98FA0910604B0900704E0900804F090090485
:2027400010910A04B0910B04E0910C04EA8FF0910D04FB8F671409F452C0098D0719000F15
:20276000000F8A2D870D820D932D911DFC012081213408F442C0275330E040E050E060E0F7
:2027800070E080E090E00E940D182A2B3B294E295F29612B7B2BFA8D8F2BAB8D9A2B209377
:2027A000060430930704409308045093090460930A0470930B0480930C0490930D04739401
:2027C000B7CF80918604882331F080E38B838C832D839E835ECF2B839C835BCFE4E0AE0E17
:2027E00082CF882321F086E791E00E943C0880910E048A198093100481CF2053BDCFA09399
:2028000013042A2F3B2DA701612F7B2F8A8D9B8D08E00E942818209314042A2F3B2DA701C1
:20282000612F7B2F8A8D9B8D00E10E942818209315042A2F3B2DA701612F7B2F8A8D9B8DAE
:2028400008E10E942818209316042A2F3B2DA701612F7B2F8A8D9B8D00E20E942818209387
:2028600017042A2F3B2DA701612F7B2F8A8D9B8D08E20E942818209318042A2F3B2DA70157
:20288000612F7B2F8A8D9B8D00E30E942818209319042A2F3B2DA701612F7B2F8A8D9B8D48
:2028A00008E30E94281820931A0480910004882309F444C084E691E00E943C0882E591E020
:2028C0000E94DB04809113040E94980880E491E00E94DB04809114040E9498088EE291E06B
:2028E0000E94DB04809115040E9498088CE191E00E94DB04809116040E9498088AE091E044
:202900000E94DB04809117040E94980888EF90E00E94DB04809118040E94980886EE90E00D
:202920000E94DB04809119040E94980884ED90E00E94DB0480911A040E949808009110042E
:20294000043088F480910004882309F42BCC84E792E00E943C0826CC882381F38EEB90E056
:202960000E943C08EBCF00FF08C080910004882309F418CC82E292E0ECCF043089F420915C
:20298000060430910704409108045091090460910A0470910B0480910C0490910D0464C010
:2029A00080910004882321F088E092E00E943C0820E030E040E050E070E0F0E080E090E036
:2029C000B0E0A0E072010A2E02C0EE0CFF1C0A94E2F7EF2DEE0FEE0B2E293F294E2B5E2B1B
:2029E0007E2BFE2B8E2B9E2B1196A031B10551F7E0910004609106042623609107043623FF
:202A000060910804462360910904562360910A04672370910B047F23A0910C04F0910D04CB
:202A20008A239F23A0E00E94431809F08BC0EE2321F084EF91E00E943C080450B4E00B9FE8
:202A4000800111242091060430910704409108045091090460910A0470910B0480910C043E
:202A600090910D040E9428180E94CF1720E030E040E85EE30E94191620E030E0A9010E9414
:202A800034172091050421116CC00E94A0176093090370930A0380930B0390930C0363E2D3
:202AA00072E086E193E00E942D084091090350910A0360910B0370910C032AE086E193E055
:202AC0000E944C0868E771E086E193E00E942D080E94F30780E00E94EC0769E272E08EED06
:202AE00093E00E942D0885E00E94EC074091090350910A0360910B0370910C032AE08EED33
:202B000093E00E944C088091090390910A03A0910B03B0910C0361E0813D9740A105B10540
:202B200008F460E087E00E941A0380E090E0892B09F4D3CA0E945804882309F4CECA0E9435
:202B40000000CBCAEE2309F41ACF83EC91E00E943C0815CF883049F31092900410928F04E0
:202B600021CB283011F384EE93E00E94DB0480910104909102040E94AF0880910504811165
:202B80000BC088ED93E00E943C0864E670E080E090E00E94BC03C9CF813019F481EC93E09B
:202BA000F2CF823019F486EA93E0EDCF843019F489E893E0E8CF853019F486E793E0E3CF46
:202BC000863019F483E693E0DECF873019F480E593E0D9CF8F3F19F487E393E0D4CF85E2A3
:202BE00093E0D1CF8EE291E09093C0038093BF0380910503909106038F5B934071F4E09150
:202C0000D203F091D30390818091D40380958923808310920603109205038AEE93E00E94E9
:202C2000B80A80EF93E00E94B80A86EF93E00C94B80A0E942C160C94A0160E94921638F096
:202C40000E94991620F0952311F00C9489160C948F1611240C94D4160E94B11670F3959F17
:202C6000C1F3950F50E0551F629FF001729FBB27F00DB11D639FAA27F00DB11DAA1F649F3E
:202C80006627B00DA11D661F829F2227B00DA11D621F739FB00DA11D621F839FA00D611DE6
:202CA000221F749F3327A00D611D231F849F600D211D822F762F6A2F11249F5750409AF0F7
:202CC000F1F088234AF0EE0FFF1FBB1F661F771F881F91505040A9F79E3F510580F00C9423
:202CE00089160C94D4165F3FE4F3983ED4F3869577956795B795F795E7959F5FC1F7FE2B43
:202D0000880F911D9695879597F9089599278827089597F99F6780E870E060E008959FEF35
:202D200080EC089500240A941616170618060906089500240A9412161306140605060895F0
:202D4000092E0394000C11F4882352F0BB0F40F4BF2B11F460FF04C06F5F7F4F8F4F9F4F2F
:202D6000089557FD9058440F551F59F05F3F71F04795880F97FB991F61F09F3F79F08795FA
:202D80000895121613061406551FF2CF4695F1DF08C0161617061806991FF1CF8695710523
:202DA000610508940895E894BB2766277727CB0197F90895A1E21A2EAA1BBB1BFD010DC0C1
:202DC000AA1FBB1FEE1FFF1FA217B307E407F50720F0A21BB30BE40BF50B661F771F881F8F
:202DE000991F1A9469F760957095809590959B01AC01BD01CF0108952F923F924F925F9201
:202E00006F927F928F929F92AF92BF92CF92DF92EF92FF920F931F93CF93DF93CDB7DEB797
:202E2000CA1BDB0B0FB6F894DEBF0FBECDBF09942A88398848885F846E847D848C849B849B
:202E4000AA84B984C884DF80EE80FD800C811B81AA81B981CE0FD11D0FB6F894DEBF0FBE5D
:202E6000CDBFED0108955058BB27AA270E944B170C94A0160E94921638F00E94991620F0B3
:202E800039F49F3F19F426F40C948F160EF4E095E7FB0C948916E92F0E94B11658F3BA1786
:202EA000620773078407950720F079F4A6F50C94D3160EF4E0950B2EBA2FA02D0B01B9013B
:202EC00090010C01CA01A0011124FF27591B99F0593F50F4503E68F11A16F040A22F232F4A
:202EE000342F4427585FF3CF469537952795A795F0405395C9F77EF41F16BA0B620B730BBD
:202F0000840BBAF09150A1F0FF0FBB1F661F771F881FC2F70EC0BA0F621F731F841F48F41A
:202F2000879577956795B795F7959E3F08F0B0CF9395880F08F09927EE0F979587950895E8
:202F40000E94B91688F09F5798F0B92F9927B751B0F0E1F0660F771F881F991F1AF0BA9526
:202F6000C9F714C0B13091F00E94D316B1E008950C94D316672F782F8827B85F39F0B93FF5
:202F8000CCF3869577956795B395D9F73EF490958095709561957F4F8F4F9F4F0895E8941D
:202FA000F92F96EBFF2381F0121613061406440B9395F69587957795679557954040FF23C6
:202FC000B9F71BC099270895882351F49850D2F7872B762F652F542F432F322F20E0B1F383
:202FE000121613061406440B88233AF09A95440F551F661F771F881FCAF755234AF4440FD0
:20300000551F11F460FF04C06F5F7F4F8F4F9F4F880F9695879597F90895002E083090F0BB
:20302000982F872F762F652F542F432F322F22270850F4CF220F331F441F551F661F771FAB
:20304000881F991F0A95B2F7002D089597FD1094002E083098F00850232F342F452F562FD3
:20306000672F782F892F912DF4CF1594979587957795679557954795379527950A95AAF751
:203080001124002D08950024A7FD00942A1730054005500560057005800590050895EE0F37
:2030A000FF1F0590F491E02D09940F931F93CF93DF938230910510F482E090E0E0919304E0
:2030C000F091940430E020E0B0E0A0E0309799F42115310509F44AC0281B390B24303105DF
:2030E000D8F58A819B816115710589F1FB0193838283FE0111C04081518102811381481786
:203100005907E0F04817590799F4109761F012960C93129713961C933296CF01DF91CF918B
:203120001F910F9108950093930410939404F4CF2115310551F04217530738F0A901DB016C
:203140009A01BD01DF01F801C1CFEF01F9CF9093940480939304CDCFFE01E20FF31F8193DE
:2031600091932250310939832883D7CF2091910430919204232B41F42091020130910301D9
:20318000309392042093910420910001309101012115310541F42DB73EB7409104015091E8
:2031A0000501241B350BE0919104F0919204E217F307A0F42E1B3F0B2817390778F0AC01BF
:2031C0004E5F5F4F2417350748F04E0F5F1F5093920440939104819391939FCFF0E0E0E0F3
:2031E0009CCFCF93DF930097E9F0FC01329713821282A0919304B0919404ED0130E020E092
:203200001097A1F420813181820F931F20919104309192042817390709F061C0F09392048D
:20322000E0939104DF91CF910895EA01CE17DF07E8F54A815B819E0141155105B1F7E90102
:20324000FB83EA8349915991C40FD51FEC17FD0761F4808191810296840F951FE9019983A4
:203260008883828193819B838A83F0E0E0E012968D919C9113970097B9F52D913C9111975C
:20328000CD010296820F931F20919104309192042817390739F6309751F510929404109251
:2032A0009304B0939204A0939104BCCFD383C28340815181840F951FC817D90761F44E5F15
:2032C0005F4F88819981480F591F518340838A819B81938382832115310509F0B0CFF0930E
:2032E0009404E09393049ECFFD01DC01C0CF13821282D7CFB0E0A0E0E0E8F9E10C94FE1620
:203300008C01009751F4CB010E9455188C01C801CDB7DEB7E0E10C941A17FC01E60FF71F60
:203320009C0122503109E217F30708F49DC0D901CD91DC911197C617D70798F0C530D1059D
:2033400030F3CE0104978617970708F3C61BD70B2297C193D1936D937C93CF010E94F118EC
:20336000D6CF5B01AC1ABD0A4C018C0E9D1EA0919304B0919404512C412CF12CE12C1097C1
:2033800031F580919104909192048815990509F05CC04616570608F058C08091000190915E
:2033A0000101009741F48DB79EB74091040150910501841B950BE817F90708F055C0F0931B
:2033C0009204E0939104F90171836083A0CF8D919C91119712966C90129713967C90139770
:2033E000A815B90559F56C0142E0C40ED11CCA14DB0420F1AC014A195B09DA011296159745
:2034000080F06282738251834083D9016D937C93E114F10471F0D7011396FC93EE9312975E
:2034200076CF22968C0F9D1FF90191838083F301EFCFF0939404E093930469CF481659065B
:2034400008F42C017D01D3019ACFCB010E9455187C01009749F0AE01B8010E944C1AC80127
:203460000E94F118870153CF10E000E050CF91110C94861680538A5018F0865C0C94441A95
:20348000089585FD0C948616806291110C94861681568A51D8F70895FB01DC0102C00190C7
:2034A0000D9241505040D8F70895DC0101C06D9341505040E0F70895FB01DC018D91019025
:2034C00080190110D9F3990B0895FB01DC0101900D920020E1F70895FB0151915523A9F0A8
:2034E000BF01DC014D9145174111E1F759F4CD010190002049F04D9140154111C9F3FB0189
:203500004111EFCF81E090E001970895AEE0B0E0ECE8FAE10C940A170D891E8986E08C8355
:203520001A8309838FEF9FE79E838D83AE01475E5F4F6F89788DCE0101960E94A91A2F81B3
:203540003885020F131FF80110822E96E4E00C942617ABE0B0E0EFEAFAE10C94FC167C017D
:203560003B018A01FC0117821682838181FFC8C1CE0101965C01F7019381F30193FD8591E0
:2035800093FF81913F01882309F453C1853239F493FD859193FF81913F01853229F4B70191
:2035A00090E00E94991CE7CF912C212C312CFFE1F31538F08B3211F190F4803209F1833273
:2035C00029F137FC3CC020ED280F2A3050F536FE20C08AE0989E200D1124922E06C08D3264
:2035E00091F0803371F7689430F8F30193FD859193FF81913F018111DACF21C0689431F84C
:20360000689432F8F2CF689433F8EFCF689434F8ECCFEAE02E9E200D1124222E689435F88A
:20362000E4CF8E3229F436FC04C1689436F8DDCF8C3619F4689437F8D8CF8836B1F2982F64
:203640009F7D95549330E0F08336A1F18337C1F1833509F063C02801F2E04F0E511CF80189
:20366000C080D180692D70E036FC02C06FEF7FEFC6010E94831C4C01689437F882010AC046
:203680000C5F1F4FFFE3F98388248394912C6501E89437F833FE2DC0522C8114910471F536
:2036A000552009F468CFB70180E290E00E94991C5A94F6CFF801808189830E5F1F4FE4CF39
:2036C0002801F2E04F0E511CF801C080D180692D70E036FC02C06FEF7FEFC6010E948E1CE2
:2036E0004C018201D5CFB70180E290E00E94991C2A942814190409F0B0F7CECFF60137FCF7
:20370000859137FE81916F01B70190E00E94991C51105A94F1E08F1A9108BFCF843619F0AA
:20372000893609F077C0F80137FE6BC060817181828193810C5F1F4FF32DFF763F2E97FFE6
:2037400009C090958095709561957F4F8F4F9F4F689437F82AE030E0A5010E94C91CC82E69
:20376000CA188C2C432C36FE0CC0E89440F8C91440F434FE05C032FC03C0F32DFE7E4F2E7A
:20378000892C44FE95C0FE01EC0DF11D8081803309F087C0242D297E422E842D8870582E4C
:2037A00043FC95C040FE8FC09C2C821418F42C0C922C981844FE91C0B70180E390E00E9418
:2037C000991C42FE09C088E790E041FE02C088E590E0B7010E94991CC91408F48AC0CA94DE
:2037E000D12C9FEFC91AD90ACA0CDB1CF60182916F01B70190E00E94991CAC14BD04B1F789
:203800004FCF60817181072E000C880B990B0E5F1F4F92CFD32CE894D4F82AE030E08537E6
:2038200039F1232D297FD22E8F3601F148F48835A9F0F701868197812B96E2E10C941817B3
:20384000803749F08837A9F7D4FE02C06894D2F820E130E00DC06894D4F8F6CF34FE03C05F
:20386000822F8660D82E20E132E002C028E030E0F801D7FE0FC060817181828193810C5FCC
:203880001F4FA5010E94C91CC82ECA183D2CE89437F867CF6081718190E080E00E5F1F4FED
:2038A000F0CF42FC02C0839478CF8394839475CF842D867809F471CFF6CFB70180E290E03E
:2038C0000E94991C83948214C0F3512C73CF522C5818821408F46ECFF8CF842D867809F442
:2038E0007BCF8BE241FE80E247FC8DE2B70190E071CFB70180E390E00E94991C9A946CCF0B
:203900008FEF9FEF99CFFC010590615070400110D8F7809590958E0F9F1F0895FC01615080
:20392000704001900110D8F7809590958E0F9F1F08950F931F93CF93DF93182F092FEB01A1
:203940008B8181FD09C01FEF0FEF812F902FDF91CF911F910F91089582FF14C02E813F8118
:203960008C819D81281739073CF4E881F981CF0101969983888310838E819F8101969F8381
:203980008E83E3CFE885F985812F0995892BA1F3DACFFA01AA27283051F1203181F1E89495
:2039A0006F936E7F6E5F7F4F8F4F9F4FAF4FB1E03ED0B4E03CD0670F781F891F9A1FA11D48
:2039C000680F791F8A1F911DA11D6A0F711D811D911DA11D20D009F468943F912AE0269F2A
:2039E00011243019305D3193DEF6CF010895462F4770405D4193B3E00FD0C9F7F6CF462FAE
:203A00004F70405D4A3318F0495D31FD4052419302D0A9F7EACFB4E0A6959795879577953D
:203A20006795BA95C9F700976105710508959B01AC010A2E06945795479537952795BA95B1
:203A4000C9F7620F731F841F951FA01D089512E0C9EDD2E004C0FE010E944F182196CA3D0E
:203A6000D107C9F7F894FFCF000095048000000000008E04EE031B04F6044C042A043E04DF
:203A800000000000A3067606B9072E056F066C066906000000002F05EE03B9072E058B0510
:203AA000A105160500000000FE07EE03B9070206554E41424C45544F434F4E4E4543540023
:203AC0004E4F444154410053544F50504544004552524F5200494E49542E2E2E0041545AD9
:203AE0000D0A00417474656D7074696E6720746F20636F6E6E65637420746F20454C4D3351
:203B000032372E2E2E0041542044004154205A004154204530004154205330004154204152
:203B20004C004154205354202530326400415420535020412563004F4B00303130300041F5
:203B4000542054502041256300415420535020256300436F6E6E656374656420746F204569
:203B60004C4D33323700444F4E4500436F756C646E277420636F6E6E65637420746F204F6E
:203B80004244207363616E6E65720052504D3A200052504D3A00FFFFFFFFFFFFFFFFFFFF2D
:203BA000FFFFFFFFFFFFFFFFFFFFFFFFFFFFFFFFFFFFFFFFFFFFFFFFFFFFFFFFFFFFFFFF25
:203BC000FFFFFFFFFFFFFFFFFFFFFFFFFFFFFFFFFFFFFFFFFFFFFFFFFFFFFFFFFFFFFFFF05
:203BE000FFFFFFFFFFFFFFFFFFFFFFFFFFFFFFFFFFFFFFFFFFFFFFFFFFFFFFFFFFFFFFFFE5
:203C0000FFFFFFFFFFFFFFFFFFFFFFFFFFFFFFFFFFFFFFFFFFFFFFFFFFFFFFFFFFFFFFFFC4
:207E0000112484B714BE81FFF0D085E08093810082E08093C00088E18093C10086E08093FC
:207E2000C20080E18093C4008EE0C9D0259A86E020E33CEF91E0309385002093840096BBAD
:207E4000B09BFECF1D9AA8958150A9F7CC24DD2488248394B5E0AB2EA1E19A2EF3E0BF2E79
:207E6000A2D0813461F49FD0082FAFD0023811F0013811F484E001C083E08DD089C0823404
:207E800011F484E103C0853419F485E0A6D080C0853579F488D0E82EFF2485D0082F10E0A0
:207EA000102F00270E291F29000F111F8ED068016FC0863521F484E090D080E0DECF84364D
:207EC00009F040C070D06FD0082F6DD080E0C81680E7D80618F4F601B7BEE895C0E0D1E0ED
:207EE00062D089930C17E1F7F0E0CF16F0E7DF0618F0F601B7BEE89568D007B600FCFDCF1A
:207F0000A601A0E0B1E02C9130E011968C91119790E0982F8827822B932B1296FA010C016F
:207F200087BEE89511244E5F5F4FF1E0A038BF0751F7F601A7BEE89507B600FCFDCF97BE85
:207F4000E89526C08437B1F42ED02DD0F82E2BD03CD0F601EF2C8F010F5F1F4F84911BD0B8
:207F6000EA94F801C1F70894C11CD11CFA94CF0CD11C0EC0853739F428D08EE10CD085E9AE
:207F80000AD08FE07ACF813511F488E018D01DD080E101D065CF982F8091C00085FFFCCF0A
:207FA0009093C60008958091C00087FFFCCF8091C00084FD01C0A8958091C6000895E0E68F
:207FC000F0E098E1908380830895EDDF803219F088E0F5DFFFCF84E1DECF1F93182FE3DF47
:207FE0001150E9F7F2DF1F91089580E0E8DFEE27FF270994FFFFFFFFFFFFFFFFFFFF040425
:00000001FF
